:020000020000FC
:0877F8004143504D0503000060
:040000000C94490310
:10006800219800EC10E80093800010938200219AF8
:1000780000E206BB00916F00006200936F0002E08F
:060088000093020108953F
:0200280032C0E4
:10008E000F930FB70F93FF93EF93E0918600F091CC
:10009E0087001F9310E400918100012700938100D7
:1000AE0000E206BB009100010030C9F4E0930401A8
:1000BE00F09305017092030101E00093000100919D
:1000CE00020100930101189BA1C0E1E8E0938100B9
:1000DE00F0E2F6BB709200017092010197C0013000
:1000EE00C9F50091040110910501E0930401F0930C
:1000FE000501E01BF10BE755F040E0F000E8EE5A89
:10010E00F04090F00695D8F7EE5AF04008F468C02B
:10011E00709201017092000131607092080170922C
:10012E00090170920A0172C00093030102E000936C
:10013E0000016CC001E80093810000E206BB7092E2
:10014E0000010FE3F9D0E95AFF4F0F2F64D10E2FA4
:10015E0062D15CC0023011F50091040110910501CD
:10016E00E0930401F0930501E01BF10BE755F0401D
:10017E00009103010894079548F0EE5AF040D0F72D
:10018E000093030103E00093000140C011E01093BF
:10019E000001109102011093010126C00330C9F431
:1001AE000091040110910501E0930401F093050103
:1001BE00E01BF10BE755F04000910301069580F02E
:1001CE00EE5AF040D8F70093030102E000930001CD
:1001DE001DC0E1E8E0938100E0E27092000116C0DC
:1001EE007092010170920001F0910801F03870F4E4
:1001FE00F395F0930801EEE0F0910901EF0FF395FE
:10020E00FF77F0930901F1E0F71D00831F91EF9145
:0A021E00FF910F910FBF0F9118958B
:02002C00FDC015
:10022800EF93EFB7EF93FF93E0918800F091890087
:10023800E255FF4FF0938900E0938800E0910601B2
:10024800EA9512F5E0910B01EA95BAF0E0930B01FB
:100258000F93EEE8F1E000910D01E00FF71D039513
:100268000F7700930D01008100950093070109E0C5
:10027800009306010F91F0E811C0E0916F00ED7F47
:10028800E0936F00F0EC0AC0E0930601F0E8E0911B
:100298000701E0FFF0ECE695E0930701F09380009A
:1002A800FF91EF91EFBFEF911895709200010F93B6
:1002B80000910301002341F43160709208017092AB
:1002C800090170920A0119C0E02FE095E0780695BF
:1002D8000E2BE8F7F0910801F03878F4F395F093D5
:1002E8000801EEE0F0910901EF0FF395FF77F09325
:1002F8000901F1E008F4F39500830F910895FF9345
:10030800EF931F93009108010023E1F3EEE0F1E081
:1003180010910A01E10FF71D13951F77F8940091CA
:100328000801015010F47894EDCF00930801109360
:100338000A01789400811F91EF91FF910895FF932E
:10034800EF93EFB7EF930F9300910B010038E0F7AD
:10035800F894EEE8F1E000910C01E00FF71D039529
:100368000F7700930C010F910083F0910B01F39527
:10037800F0930B01F13091F4F0916F00F1FD0EC094
:10038800F260F0936F00E0918400F09185007E9612
:10039800F0938900E0938800E2E0E6BBEF91EFBFBD
:1003A800EF91FF9108950F9300910B010023E1F75E
:1003B8000F910895DF93CF934F93FF92EF921F937E
:1003C8000F93CC2740E2DD27000F111FEE1CFF1C06
:1003D800DD1FDA3010F0DA5003954A95A9F7DA30C4
:1003E800D05DDF93C39507151705E704F70451F7A8
:1003F80000E3C3301CF40F93C395FBCF0F919FDF2D
:10040800CA95E1F70F911F91EF90FF904F91CF910F
:10041800DF9108950F93012F01D00F91029501D01C
:1004280002950F930F700A3008F0095F005D87DFAF
:100438000F9108950F9300E282DF0F910895FF93C3
:10044800EF93DF93CF930F93DEB7CDB7EF81FE81A4
:10045800EE0FFF1F0591003031F071DF0D30D1F73D
:100468000AE06DDFF7CF3196F695E795EF83FE83C7
:100478000F91CF91DF91EF91FF910895115030F0D6
:1004880009910590001919F40020C1F7001B08957F
:10049800B6D50990001511F42A95D1F70895EDE025
:1004A800F7E000E019E02AE50190201519F4E017BB
:1004B800F107D1F731970E1B1F0BC1DF0D00BFDF0E
:1004C800537461636B207573656420286279746561
:1004D80073293A200000FF92EF92EE24FF246ADF8E
:1004E800EF90FF9008951F930F938F0193DFA7DF7D
:1004F8003A0010E1183009F49DDF9CDF01918EDF8E
:100508001A95C1F7709796DF95DF10E101910032D7
:1005180010F00F3708F00EE212DF1A95B9F770974E
:1005280089DF0F911F918BDF0D0008950F931F93A3
:100538008F0170DF84DF3A001F911F937BDF0191E9
:100548006DDF1A95D9F71F91E11BF70973DF72DF89
:100558000191003210F00F3708F00EE2F0DE1A9524
:10056800B9F70F916CDF0D000895042F74D067DF81
:10057800202041203D00052F51DF61DF204243202C
:100588003D00840147DF5BDF204445203D008501B5
:1005980041DF55DF20484C203D0086013BDF4FDF1F
:1005A8002053503D0000870135DF49DF2050433D8F
:1005B80000008C012FDF43DF202020202020200096
:1005C800DC010E9403082ADF3ADF20000E940308AA
:1005D80025DF35DF20000E94E70720DF30DF20001D
:1005E8000E8139D02CDF202061273D000F8116DFD6
:1005F80026DF206263273D00198108810BDF1FDF9A
:10060800206465273D001B810A8104DF18DF20680C
:100618006C273D001D810C81FDDE11DF2049583D0E
:10062800000019850885F6DE0ADF2049593D0000DB
:100638001B850A85EFDE03DF20493D000C85EEDED1
:10064800FEDE20202020202020000895535A204834
:1006580020564E4300001F93102FF1DE0D00EF933C
:10066800FF93E4E5F6E00591002339F0003219F034
:1006780017FF00E264DE111FF6CFFF91EF911F9183
:1006880008950000FEFCF8F4FF000FEF0DBF08E02E
:100698000EBFEAE8F6E0C0E0D0E0B591B993E239E0
:1006A800E1F7A89574BE08E10093600000E10093AB
:1006B80060006BB865B868B86AB80FEC07B90EEF98
:1006C80004B970926F00709270007092B0007092CE
:1006D800B100E0E0F1E017E07192ED30F107E1F7E9
:1006E80019E00AE50193E030F107E1F700E21EE4C2
:1006F80010938B0000938A0001E800938100009119
:100708006F00046000936F00ABDC0EE40093B3004D
:100718000091B00002600093B0000091B100026047
:100728000093B1000091700002600093700078940B
:10073800D2D4C7D10AE04CD182DE0D0D43504D20F2
:100748006F6E20616E204156522C2076332E352054
:10075800723234314D0073DE0D0071DE54657374EE
:10076800696E672052414D3A2066696C6C2E2E2EB8
:100778000000A0E0B0E00B2F0A2747D4E0F75FDEC7
:10078800776169742E2E2E0018E00FEF21D11A958B
:10079800E1F755DE7265726561642E2E2E00A0E0C9
:1007A800B0E0222710D41B2F1A27011731F122237A
:1007B80049F445DE0D0043DE4164647220787820F8
:1007C800797920003CDE0D00E02F8D0123DE32DE3A
:1007D8000B2F0A27102F22DE2DDE0E2F1FDE2ADE1A
:1007E800012F0E27012317D025DE012F0E27109584
:1007F800012311D02395203110F4119698F6222365
:10080800C1F01DDE2053797374656D2068616C74C6
:1008180065642100FFCF1F932F93102F28E00DE26E
:10082800110F08F408E58BDD2A95C9F72F911F9160
:100838000895A0E0B0E006E7E8D3F0F700DE0D0089
:10084800FEDD496E6974696E67206D6D632E2E2E0C
:100858000000F5DD0D000E945C0B0F7729F5EFDD38
:100868004E6F20626F6F7461626C652043502F4D2C
:10087800206469736B20666F756E642120506C6507
:10088800617365206368616E6765204D4D432F5322
:10089800442D436172642E00D2DD0D0012E10FEF8A
:1008A80097D01A95E1F7CACF0E94B40BC8DD0D00A6
:1008B800C6DD50617274696E697420646F6E652E4E
:1008C80000000E94E60DC5E9D4E079867A867B8629
:1008D8007C86A0E0B0E2AE87BF8700E80E94C30D27
:0408E8000C94D50E89
:020030005DC4AD
:1008EC00EF93EFB7EF93FF93E0918A00F0918B00B9
:1008FC00E05EF14BF0938B00E0938A00CF93DF9393
:10090C00CEE0D2E0E0910101E15020F0E093010152
:10091C0009F4C9DCE881E15008F0E883E981E15091
:10092C0008F0E983EE85FF853196EE87FF87E83E78
:10093C00E3E0FE07F4F17E867F86E889F98931963B
:10094C00E88BF98B29F4EA89FB893196EA8BFB8BCE
:10095C00EB8DE395EB8FEC3360F17B8EEC8DE395B7
:10096C00EC8FEC3330F17C8EED8DE395ED8FE8312F
:10097C0000F17D8E0F93EBECF9E00F8DE00FF71D7E
:10098C00F491023021F4E8A1E37009F4F395EE8DB3
:10099C00E395EE8FFE1760F4E1E0EE8F03950F8F79
:1009AC000D3030F0EF8FE8A1F9A13196E8A3F9A34F
:1009BC000F91DF91CF91FF91EF91EFBFEF911895D0
:1009CC001F1C1F1E1F1E1F1F1E1F1E1F00930E020B
:1009DC0000910E020030E1F70895E2E2F2E02223EA
:1009EC0021F0E20FF71D0081089527E0F8940781AC
:1009FC0001932A95E1F778941291029132D00083F9
:100A0C00118325E0029122D000832A95D9F7009119
:100A1C0022020895E2E2F2E0E20FF71D00832223A6
:100A2C0009F0089525E0008134D001932A95D9F777
:100A3C000081118139D00193119327E0F894029130
:100A4C0007832A95E1F778947BD008951F931AE0D9
:100A5C00062C0394011BE8F7010F0294000D1F9163
:100A6C00089520E1080100271127000C111C001F1C
:100A7C00111F2A9569F01D5F13FF1350105D17FFAE
:100A8C0010530D5F03FF0350005D07FF0053EDCFC4
:100A9C0008951F93102F12951F700F70012E1AE0DE
:100AAC00109D000D1F910895F4DF0F93012FF1DFBE
:100ABC0014E6019F0F91112D000D171D08957F92C3
:100ACC007F927F927F9200E10F93FEB7EDB700EA21
:100ADC000F9312E01FD313E039D3037051F121812E
:100AEC00A28112E0118316D316E030D3037009F102
:100AFC001A2F0481001F001F001F0227037011F022
:100B0C002F5F1F4FA9E2B2E0F8940181C2DF0D9371
:100B1C000281BFDF0D930381BCDF0D9304810F7342
:100B2C00B8DF0D9305810F71B4DF0D932D931D93D9
:100B3C0078940F910F910F910F910F910F91089540
:100B4C00E9E2F2E0F89410812181B281A381048161
:100B5C00C581D68178947ADF0F930A2F77DFAC2F7B
:100B6C00A295AA0FAA0FA07C0A2B0F930B2F6EDF56
:100B7C000F93022F6BDF0F93012F68DF0F937F9280
:100B8C0004E80F937F92FEB7EDB700EA0F9319E0DC
:100B9C00C1D204E0028313E0BDD2D383C28300E14F
:100BAC00018314E0B7D2E85FFF4FF894EDBF78945F
:100BBC00FEBF08950FEFE6E1F2E0215020F021F0A6
:100BCC00E20FF71D0081089516E0F8940681019359
:100BDC001A95E1F77894009116020895215060F46B
:100BEC000130D9F0023031F00F3009F1003109F445
:100BFC005EC008951CD011C0E6E1F2E021F0E20FD6
:100C0C00F71D008308950083359616E0F89406814D
:100C1C0001931A95E1F778940895E0E1F2E016E07B
:100C2C00F894048501931A95E1F778940895FF924E
:100C3C00EF92DF93CF93E0E1F2E0F894C485119149
:100C4C00C11BD4851191D10B18F4C851DC4F0894F9
:100C5C00DF93CF930485C1910C0B1485D1911D0B9F
:100C6C00E484C191EC0A7894F484D191FD0AE5DB1B
:100C7C000D00E3DB54696D65722072756E6E696EE2
:100C8C00672E20456C61707365643A20000090DB20
:100C9C00D4DB2E000F911F91EE24FF2489DBCDDBDA
:100CAC00732E0000CF91DF91EF90FF900895FF928B
:100CBC00EF92ECE1F2E0F89401910F9301910F9314
:100CCC0001911191E1907894F190B7DB0D00B5DBB7
:100CDC00557074696D653A2000006ADBAEDB2C0040
:100CEC00EE24FF241F910F9163DBA7DB732E000012
:100CFC00EF90FF9008950093300210933102089505
:100D0C00FF92EF92E0903002F09031020E0D1F1D19
:100D1C0030F00093300210933102870102C000279B
:100D2C001127EF90FF900895DC2FCB2FBA2FA0E066
:100D3C00BB0FCC1FDD1F08956EBC0DB407FEFDCF9D
:100D4C000EB508950EBD0DB407FEFDCF08951F938B
:100D5C0012E0F2DF60920F02EFDF061511F401E0F2
:100D6C0006C000910F020030B9F71A9599F71F9140
:100D7C00002308952A9AE0DF002708952A98E7DFD8
:100D8C00C9F30F6F089517FF13C0DF93CF93BF9371
:100D9C00AF931F93C0E0D0E0DE0117E3F4DF1F91A7
:100DAC00AF91BF91CF91DF91023010F000230895E5
:100DBC00E1DFE4DF11F40FEF1EC0012F0F770064A9
:100DCC00C1DFDEBDC0DFCEBDBEDFBEBDBCDFAEBD94
:100DDC00BADF05E9103021F007E8183009F001E01E
:100DEC00B1DF1C3009F4A8DF1F931AE0A5DF07FF61
:100DFC0002C01A95D9F71F9100230895C4DF0E176E
:100E0C0039F414E0EAE1F0E097DF01931A95E1F789
:100E1C00089500910E02002329F4FA9519F004E6C6
:100E2C0000930E0208950091320201600093320289
:100E3C0003E50CBD7DBC1AE07FDF1A95E9F720E0D5
:100E4C0010E0C0E0D0E0DE019EDF013009F03AC0D6
:100E5C00FAE004E600930E0218E0C0E0D0E0B1E046
:100E6C00AAEAE1E0CBDFB9F4C130A9F4DA3A99F49B
:100E7C0019EAD0E4C0E0B0E0A0E085DF19F0C9DFEA
:100E8C00E1F708C01AE3D0E0E0E0B8DF19F4246021
:100E9C00A6FD286017C019EAC0E0D0E0DE0173DFC0
:100EAC00023018F4226019EA02C0216011E06BDFF5
:100EBC0019F0AFDFE1F706C010E1A0E0B2E063DFAC
:100ECC0009F020E02093330255DF009132022223F7
:100EDC0019F00E7F009332027CBC089501E003C030
:100EEC0003E001C000E02F93202F0091320213E0A9
:100EFC0000FD64C000E50CBD01E00DBD00913302A6
:100F0C0003FF12DF20FD11E120FF18E13CDF09F0A7
:100F1C0052C0C0E0D2E020FF3AC008EC00930E02B1
:100F2C000BDF061521F400900E020714C9F70E3FD3
:100F3C0009F041C001DF6EBC21FF1BC0219719F1E4
:100F4C00E715F70539F031970DB407FEFDCF0EB557
:100F5C006EBCF4CFE02F0DB407FEFDCF0EB56EBC0A
:100F6C00F02F219781F00DB407FEFDCF0EB56EBCAE
:100F7C00F8CF219739F001930DB407FEFDCF0EB5D4
:100F8C006EBCF7CF0193DFDED7DE10E015C0DFDEDD
:100F9C0091F00EEF0EBD01910DB407FEFDCF0EBD0D
:100FAC002197C9F7D0DE0FEFCDDECCDEC5DE0F7199
:100FBC00053010E009F011E0DDDE7CBC012F2F9133
:100FCC000895BBB928B8ABB938B87AB848B800C0DE
:100FDC00000009B168B86AB80895BBB928B8ABB9B4
:100FEC0038B80BB958B868B80895EBDF11960F9361
:100FFC00E8DF1196102F0F910895E3DF11960895F5
:0C100C00ECDF1196012FE9DF119608952A
:02006000DBC7FC
:101018000F930FB70F930091B9001F932F93FF936E
:10102800EF93E4E3F2E010812181083081F0003190
:1010380069F0083179F0083279F00033C9F00034EA
:1010480009F1003509F1083579F135C02F7E1127EE
:10105800286803C0246001C022600281101740F490
:10106800E10FF71D139504810093BB0005E825C027
:10107800216024FF20C000913802016000933802EB
:1010880005EA1BC0246007C02260E10FF71D139515
:101098000091BB000483009137020A95101710F4E1
:1010A80005EC0BC005E809C02360E10FF71D139597
:1010B8000091BB0004832F7704E90093BC002093C0
:1010C800350210933402EF91FF912F911F910F91E8
:1010D8000FBF0F9118957092BC0002E20A95F1F7C4
:1010E8000CE50093B8006092BB0004E00093BC00DC
:1010F80008950EE100930E020091BC00017131F0D9
:1011080000910E020023C1F7E6DF00E400903502EB
:101118000029009335020895ECDF0034C0F4FF93F2
:10112800EF93DF93CF93C4E3D2E000E809831A83F7
:10113800249601910E7F09931A9511F00191FBCF26
:1011480005EA0093BC00CF91DF91EF91FF910895DC
:10115800D0DF0034E0F4FF93EF93DF93CF93C4E341
:10116800D2E000E809831B83008101600C8305EA53
:101178000093BC00BEDF01FF06C0188124960990C9
:1011880001921A95E1F7CF91DF91EF91FF910091CC
:1011980035020895AEDF003460F5DF93CF93FF93F7
:1011A800EF93C4E3D2E000E9098302E00A831B83DA
:1011B8002496002E01910E7F09930A9411F0019153
:1011C800FBCF05EA0093BC0094DF04FD0EC001FFCD
:1011D8000CC0C4E3D2E018812496EF91FF91FF93ED
:1011E800EF93099001921A95E1F7EF91FF91CF9152
:1011F800DF91009135020895009135020895222368
:1012080019F40091340205C0EBE7F2E0E20FF71D94
:1012180000810895EBE7F2E0E20FF71D00830895DF
:1012280068DF0034C8F4E4E3F2E000E801832091C9
:101238007B02223408F022E422833496A0917C02B7
:10124800B0917D02DCDE0E7F01932A9511F0D7DE86
:10125800FBCF05EA0093BC0008954BDF0034E8F4A7
:10126800E4E3F2E000E8018320917B02223408F0F5
:1012780022E423833496A0917C02B0917D02BFDEE4
:10128800016001932A9505EA0093BC0032DF0370E0
:1012980021F00191BADE2A95E1F708952ADF00349A
:1012A80068F5E4E3F2E000E90183128320917B0210
:1012B800223408F022E423833496A0917C02B09172
:1012C8007D029DDE0E7F01931A9511F098DEFBCF0B
:1012D80005EA0093BC000DDF04FD87CF0370E9F237
:1012E800E4E3F2E010813596A0917C02B0917D0292
:1012F800119602C0019189DE1A95E1F7089501302F
:1013080009F4ABCF023009F48BCF033011F412E0AB
:10131800C5CF08956F92FEB7EDB700E2020F000F38
:101328000F9312E015DF0F910F9108950F93FEB7F9
:10133800EDB700E2020F000F0F9312E0EDDE0F9100
:101348000F910895229526952F93FEB7EDB708E4DF
:10135800000F0F9312E01EDF0F910F9108950F9366
:10136800229526952F93FEB7EDB708E4000F0F934B
:1013780013E0D2DE0F910F910F9108952F93FEB7CE
:10138800EDB700E2000F0F9312E004DF0F910F9109
:1013980008950F932F93FEB7EDB700E2000F0F9358
:1013A80013E0BADE0F910F910F9108950181128118
:1013B800C381D481A00FB11FC71DD71D089500E1B7
:1013C80008830085098301850A8302850B830385C9
:1013D8000C8306851785012B29F404850D83058563
:1013E8000E8302C06D826E82089543504D44534B64
:1013F8005F00494D4700CEE7D2E0788279827A8251
:101408007B827C820895CEE7D2E06F86688A6E86FA
:101418006E8A0895CEE7D2E0688200850983018547
:101428000A8302850B8303850C830895C0917E028D
:10143800C03079F0C0919B04C8305CF4EFE7F2E06B
:10144800A081B181C281D381E9EFF4E049DD0023B5
:1014580011F000270895CEE7D2E0E9EFF4E0058522
:101468000D83018912891695079516950795169586
:101478000795169507950F9306841784A981BA8155
:101488000B811C81A00DB11D071D171DAE83BF83E5
:10149800088719870689178920890801AE81BF81C5
:1014A80008851985271531F0A00DB11D071D171DD9
:1014B8002A95F8CF2F91A20FB71D071D171DAA87D0
:1014C800BB870C871D87A0918802B0918902C091C3
:1014D8008A02D0918B02A21BB709C709D709E9EF85
:1014E800F4E0FEDC002311F000270895A9EFB4E032
:1014F800ED01E2EFF3E117E00E94420289F4219640
:10150800319613E00E94420259F4ED011F8101E473
:10151800011721F003950B35D8F302C009D0DE017D
:10152800909606E0A93FB00719F72A9561F6089545
:10153800E1EBF4E000810023A1F005FF03C0038183
:10154800101730F03996E93F04E0F00799F708954D
:10155800DF01E0EFF4E0EA17FB0719F002900186DB
:10156800FACF00E200830A8C1B8C0182128213835B
:1015780074820C8CAD8DBE8D0F8D889407101196DA
:10158800071D0695B795A795A71DB71D071D00232D
:1015980011F0AFEFBFEFA583B68300919B0408302D
:1015A80019F0039500939B040895002411241297C1
:1015B8000D810695002331F00695AA0FBB1F001C6C
:1015C800111CF8CF0A85A00F0B85B01F0C85001ED3
:1015D8000D85101E80010895E091AE0450D101815F
:1015E8001281A715B70531F1AF93BF93FF27E02FFD
:1015F800EE0FFF1F0E891E8B011781F0AE81BF8190
:1016080008841984A10FB71D071C171CE001EF936C
:10161800FF93E5E9F2E064DCFF91EF91C5E9D2E0E0
:10162800EC0FFD1F00811181CEE7D2E0BF91AF9191
:101638001197D7CF0895CEE7D2E08D01072C172C4C
:10164800ED81E695EE2331F016940794B795A795AA
:10165800E695F8CF0A2EED81E695EE2319F0000CF9
:10166800E695FBCFE02FE019E98B0090AE041E84CD
:101678000E86011451F40F8418880A161B0629F4E3
:10168800AA89BB890C891D8909C0AF87B88BA4DFDB
:10169800D8018BDFAA8BBB8B0C8B1D8BE989AE0F16
:1016A800B71D071D171DE8010895089508950895A9
:1016B80070929B04C1EBD4E018E479921A95E9F78B
:1016C800B4DB037041F4C0E0D0E0DE01E9EFF4E000
:1016D80007DC002311F000270895C1EBD4E020E0D7
:1016E8000091F70605350091F8061AEA010779F026
:1016F800239520939B0400E410E1188379827A8271
:101708007B827C827D820E8320E094D11DC0E7EB32
:10171800F6E00481023539F452DE239520939B04C8
:101728002996283089F07096E73F99F7E7EBF6E0BD
:1017380004810E3011F0063021F46CDE77DE63DEB2
:1017480003C07096E73FA1F7222700919B0420175A
:1017580019F070D12395F9CF00919B0400230895C7
:10176800C0919B04CC2309F40895FF92EF92E1EB1A
:10177800F4E0B1E40E9423020D0001811281E380AC
:10178800F480A081A07F07151705E704F70419F472
:1017980029D03FD00BC0A03119F424D02DD006C0D9
:1017A800A03219F41FD045D001C05CD00E94DE01E0
:1017B8000E9423022C2073697A653A200000058173
:1017C8001681EE24FF24169507950E94DE010E94DB
:1017D80023024B422E003996B395CA9559F6EF90DD
:1017E800FF9008950F930B2F0E94A3010E942302DC
:1017F8003A2000000F9108950E94230243502F4D74
:1018080020706172746974696F6E2061743A200087
:1018180008950E942302417373756D696E672043B2
:10182800502F4D20696D6167652061743A20000072
:1018380008950E94230246415431362046696C655A
:101848002D496D616765202700000F930E2D0E94BA
:10185800A301EE240F910E942302272061743A20ED
:10186800000008950E942302556E6B6E6F776E20FC
:10187800456E7472792061743A2000000895F9E089
:10188800FE9FE1EBF4E0E00DF11D0895ECE9F4E0D2
:10189800E20FF71D0895FADF0083213031F0089533
:1018A800223079F0F3DF00810895A0919C04B02FD5
:1018B800E5E9F4E026E0A3DB01932A95E1F749D0B6
:1018C800089510919B0400919E040830A8F41123F8
:1018D80039F43FD0EDDE0F931F911F7700919E04DE
:1018E800011740F434D0012B21F420919E04022FDB
:1018F800E5D0089500E0089500E008950091AC0453
:1019080008950A3C43504D5F4469736B3E00001ACA
:1019180000030700F2003F00C00010000200028030
:1019280000051F01FF07FF03FF0000010000002062
:1019380000051F01F907FF03FF0000010600A09141
:101948009504B0919604000FA00FB71D0895F7DF16
:101958004ECBA0919504B0919604109771F028E0B1
:1019680000E010E04FDB2A95D9F700919904109117
:101978009A040715170509F0C0D90027089500270C
:101988000895C9EFD4E0EAE0F9E115910E94420216
:1019980039F4E8E1F5E0E89401E000830F6F089579
:1019A80000270895E22F6BDF05811681013000E4DE
:1019B800100769F4E9EFF4E010E00191053E39F40D
:1019C8001A95D9F7E6E2F9E168940F6F08950027B0
:1019D8000895E22F54DF05811681003000E41007D6
:1019E800B9F4CFE6D5E0EAE0F9E115910E944202A8
:1019F80051F0E9EFF4E012E000240191053E41F4D2
:101A0800060C161DD1F7E6E3F9E168940F6F089507
:101A18000027089500E010E068D1B1DF51F4B1DF8C
:101A280041F4D7DF31F4BEDF21F4E6E1F9E168944F
:101A38000F6F0895EFDFB1F12EF40591C591D5919F
:101A4800159104C00191C191D1911191E22F17DF35
:101A5800C783DD2349F10E9423020D0001E4020F30
:101A68000E94A3010E9423023A20466F726D61749E
:101A7800206E6F7420737570706F727465643A208D
:101A8800546F6F206D75636820736563746F72732C
:101A98002070657220747261636B212000000E94BF
:101AA80023020D00002708951F70129510870F70EC
:101AB8001081107F012B00830F6F0895202FAADF5C
:101AC80009F44CC000E110E01DD909F447C0D80161
:101AD800E80100E010E096DA16960091970410915C
:101AE800980490DA0FE010E00DD9B1F1D8013196E1
:101AF8002F932FE00EF405910EF0019186DA2A95C6
:101B0800C9F72F911F973F978D01DE011A967ADA50
:101B18003EF435960590159034960591159104C0BC
:101B280005801680038514850715170511F0EAD876
:101B380099F068DA8001085F1F4F1695079516958A
:101B4800079516950795DED839F05CDA022FF7DE8F
:101B58008E0158DA0F6F08958E01CFD800270895A7
:101B680010811F70188B1781198B108512951F70A3
:101B780000240394000C1A95E9F70A8A0895C5E928
:101B8800D4E07F8A07FD24C006FD22C004FD1DC0E5
:101B980005FD17C00E9423024449534B20492F4F8B
:101BA8003A20496E76616C69642046756E63746983
:101BB8006F6E20636F64653A20000E9412020C94D5
:101BC8001F107E82F7987B8A0895F69BF7980895F0
:101BD800E98555DE1081107F103009F4089506FD5F
:101BE80006C0F49AF59A7B8A02E0088F03C0F4983D
:101BF8000370088FB5DFAC85B0E010E00889A00F4E
:101C0800B71D09890A84009DA00DB11D0B84009D94
:101C1800B00D111D2A2F237002E01695B795A795D0
:101C28000A95D9F7F49929C0F598088D023061F41E
:101C38000A89203021F0F59A04500888000D0B8B92
:101C480009850C8BAD8BBE8B0B890023A1F00A95FF
:101C58000B8B09851C89011771F40D881E880A16DB
:101C68001B0649F4022F0395037021F40618160881
:101C78000D8A1E8A02C07B8AF59A2F938D012985C9
:101C88003AD00F91C5E9D4E0E9EFF4E020E8029FEB
:101C9800E00DF11DAE85BF85F49911C0F69ABBB968
:101CA80028B8ABB938B87AB848B800C0000009B14C
:101CB80068B86AB8019311962A9589F70BC0019103
:101CC800BBB928B8ABB938B80BB958B868B81196C9
:101CD8002A95A9F7088D013009F008950F89002386
:101CE80009F0089529D0F6980895F59A04D000913E
:101CF800AC0400230895C5E9D4E07F8A0EB2F79AB0
:101D080007FE11C0098C201529F40A8C00150B8CCC
:101D1800100589F0F69B07C02F931F930F930CD0E3
:101D28000F911F912F91C5E9D4E00A8F1B8F298F3E
:101D3800F5990FD0F698089519D041F0E9EFF4E03D
:101D4800D3D8002319F47092AC0408956092AC04BF
:101D580008950CD041F0E9EFF4E0C2D8002319F45B
:101D68007092AC0408956092AC040895E091AE04BA
:101D780086DDA091AF04B091B00405801680A0154F
:101D8800B10568F40081007F003211F454DC05C00D
:101D9800003111F40BDB01C002C00F6F089500275A
:101DA800089580E090E2C9EFD6E033270E9423022D
:101DB8000D000E9423024F6B2C205A38302D4350BF
:101DC80055206973206C6976652100000E94230202
:101DD8000D0037110FC09BB928B88BB938B87AB83D
:101DE80048B800C00000E9B168B86AB80196F3E1E4
:101DF8000995EFCF31FF08C032FD06C0913020F0C1
:101E08009C3D10F40E94B90230FF11C03A7F0E9435
:101E180023020D000E942302427265616B206465F3
:101E280074656374656421200000872D972DD3CFD6
:101E38000895DC011197BBB928B8ABB938B87AB89E
:101E480048B800C0000069B168B86AB8687370E043
:101E580008959BB828B88BB838B87AB848B800C085
:101E6800000059B168B86AB80895BBB828B8ABB8CB
:101E780038B87AB848B800C0000059B168B86AB82C
:101E88000895DBB828B8CBB838B87AB848B800C0D5
:101E9800000069B168B86AB80895D701BBB928B815
:101EA800ABB938B87AB848B800C0000069B168B8AA
:101EB8006AB81196BBB928B8ABB938B87AB848B877
:101EC80000C0000079B168B86AB808959BB928B80D
:101ED8008BB938B87AB848B800C0000069B168B89A
:101EE8006AB8019608959BB928B88BB938B87AB8FA
:101EF80048B800C0000069B168B86AB801969BB9D3
:101F080028B88BB938B87AB848B800C0000079B199
:101F180068B86AB801960895562F0895962E0895C0
:101F2800862E0895B62E0895A62E0895D62E0895C5
:101F3800C62E0895AB0108954B0108955B010895DD
:101F48006B0108959BB828B88BB838B85BB958B8F6
:101F580068B80895BBB828B8ABB838B85BB958B8F2
:101F680068B80895DBB828B8CBB838B86BB958B892
:101F780068B80895D701BBB928B8ABB938B86BB9F8
:101F880058B868B81196BBB928B8ABB938B87BB996
:101F980058B868B808957B010895CB01089577274C
:101FA80066230AF47095860F971F0895D701BBB969
:101FB80028B8ABB938B87AB848B800C0000089B1B9
:101FC80068B86AB81196BBB928B8ABB938B87AB846
:101FD80048B800C0000099B168B86AB811967D0188
:101FE8000895D7011197BBB928B8ABB938B89BB9D0
:101FF80058B868B81197BBB928B8ABB938B88BB915
:1020080058B868B87D01CB0108957BB928B86BB979
:1020180038B85BB958B868B8089501970E94B902F2
:102028000E942302496E76616C6964206F70636F49
:10203800646521200000FFCF019732FD08953460C8
:102048000E94B9020E9423024350552068616C74B3
:102058006564212000000895052F162F0E94B522DF
:102068000895162F0E94B722502F089541706F5F70
:102078000FB702FD406801FD406405FF406103FDA4
:102088004460089541705F5F0FB702FB47F901FB99
:1020980046F905FF406103FB42F9089561500FB707
:1020A80002FB47F901FB46F905FB44F903FB42F93A
:1020B8004260089551500FB702FB47F901FB46F9FA
:1020C80005FB44F903FB42F9426008956F5F7F4FB7
:1020D8000895C618D6080895A618B608089586184B
:1020E80096080895615070400895C60CD61C08954E
:1020F800A60CB61C0895860C961C08954C7E550FA8
:1021080018F401E0502B416008954C7E569518F460
:1021180000E8502B41600895889440FD08944C7E57
:1021280050FB40F957950895889440FD08944C7EDB
:1021380057FB40F9551F0895560F0FB7F4E4E52FE4
:10214800449100FB40F905FB44F903FB42F908956B
:10215800889440FD0894561F0FB7F4E4E52F449186
:1021680000FB40F905FB44F903FB42F90895561BAF
:102178000FB7F4E4E52F449100FB40F905FB44F95F
:1021880003FB42F942600895152F161B0FB7F4E4BC
:10219800E12F449100FB40F905FB44F903FB42F9A8
:1021A80042600895889440FD0894560B0FB7F4E4F4
:1021B800E52F449100FB40F905FB44F903FB42F984
:1021C800426008955623F4E4E52F44914061089550
:1021D800562BF4E4E52F449108955627F4E4E52FAF
:1021E80044910895C60ED71E0FB700FB40F905FBB2
:1021F80044F94D7F0895DB01BBB928B8ABB938B8AD
:10220800CBB858B868B81196BBB928B8ABB938B8C4
:10221800DBB858B868B80895DB01BBB928B8ABB9C2
:1022280038B87AB848B800C0000069B168B86AB868
:102238001196BBB928B8ABB938B87AB848B800C055
:10224800000079B168B86AB808957BB928B86BB945
:1022580038B87AB848B800C0000069B168B86AB838
:10226800089570E041FD21C010E0062F0F700A307C
:1022780048F07660106140FD02C0603910F0706669
:1022880011600DC040FD02C0603A10F07066116028
:1022980044FF05C07660062F0F70063000F4670F04
:1022A800F4E4E62F4491412B089512E0062F0F70B5
:1022B8000A3040F0766040FD02C0603910F0706668
:1022C80011600EC040FD02C0603A10F070661160E7
:1022D80044FF06C07660062F0F70063008F41061C0
:1022E800671BF4E4E62F4491412B08954D7E41602D
:1022F80008954D7F40FB44F901E04027089550952B
:1023080042610895D7011197BBB928B8ABB938B85D
:102318007BB958B868B81197BBB928B8ABB938B801
:102328006BB958B868B87D010895D701BBB928B80A
:10233800ABB938B87AB848B800C0000069B168B815
:102348006AB81196BBB928B8ABB938B87AB848B8E2
:1023580000C0000079B168B86AB811967D01089587
:1023680086016B01B80108950E85037F0E870895D5
:102378000E850C600E87089546FF08950F910F9102
:10238800089546FD08950F910F91089540FF08950F
:102398000F910F91089540FD08950F910F910895A1
:1023A80042FF08950F910F91089542FD08950F91EE
:1023B8000F91089547FF08950F910F91089547FDD4
:1023C80008950F910F9108959A9429F060588058B4
:1023D8009709860F971D08950E811F814E835F838D
:1023E800402F512F089508811981888299824801C8
:1023F8000A811B81AA82BB8258010C811D81CC8273
:10240800DD82680108959BB928B88BB938B87AB8C5
:1024180048B800C00000E9B168B86AB80196F0E2AF
:102428000994F1989BB928B88BB938B87AB848B8E4
:1024380000C00000E9B168B86AB80196F7E10994EC
:10244800F19A9BB928B88BB938B87AB848B800C09F
:102458000000E9B168B86AB80196F7E109949BB938
:1024680028B88BB938B87AB848B800C00000E9B1C4
:1024780068B86AB80196F9E10994F19903C0B98579
:10248800A88502C0BB85AA859BB928B88BB938B87E
:102498007AB848B800C0000009B168B86AB80196AF
:1024A800112700230AF41095A00FB11FBBB928B853
:1024B800ABB938B87AB848B800C0000069B168B894
:1024C8006AB89BB928B88BB938B87AB848B800C088
:1024D8000000E9B168B86AB80196FDE10995BBB991
:0E24E80028B8ABB938B86BB958B868B80895C1
:04260000089579CFF1
:0424F600FBDC23CD1B
:06260400A3CC6FCD78CFDE
:0624FA00692DBBDD12CDCF
:02260A007ACF85
:06250000692DD0DD0FCDB6
:02260C007CCF81
:04250600E6DC0DCD35
:06260E007ACDE7CE7BCF80
:04250A00B4016FCEDB
:0626140022CC73CD7ACF49
:06250E00682DB1DD0ACDCD
:02261A007CCF73
:06251400682DC6DD07CDB5
:02261C007ECF6F
:04251A00DCDC05CD33
:04261E0079CD7ECF25
:04251E00DADC57CFDD
:022622007FCF68
:04252200E5DC0FCD18
:062624009BCC5CCD7ECFD3
:062526006B2DA5DD00CDC8
:02262A0080CF5F
:06252C006B2DBADDFDCCB1
:02262C0082CF5B
:04253200D0DCFBCC32
:04262E0080CD82CF0A
:04253600CEDC36CDF4
:0226320083CF54
:04253A00B50157CEC2
:062634001ECC60CD82CF38
:06253E006A2D99DDF6CCC8
:02263A0084CF4B
:062544006A2DAEDDF3CCB0
:02263C0086CF47
:04254A00C4DCF1CC30
:04263E0070CD86CF06
:06254E00C2DC17DF29CDFD
:0226420088CF3F
:04255400CCDCF8CC17
:0226440089CF3C
:04255800CADC51CEBA
:0426460049CD89CF22
:06255C006D2D8ADDE9CCC3
:02264A008BCF34
:062562006D2D9FDDE6CCAB
:02264C008DCF30
:04256800B5DCE4CC2E
:02264E008ECF2D
:06256C00652F7DDED7CCD7
:0226500090CF29
:06257200B0DC0ADF17CD0A
:0226520092CF25
:04257800B60138CEA2
:0226540093CF22
:06257C00B8DC50DEE3CCE8
:042656004DCD94CF03
:062582006C2D77DDD8CCC2
:02265A0096CF19
:062588006C2D8CDDD5CCAA
:02265C0098CF15
:04258E00A2DCD3CC2C
:04265E0053CE98CFF0
:06259200A0DCFFDE07CD16
:022662009ACF0D
:04259800AADC01CDEB
:022664009BCF0A
:04259C00A8DC39CDB1
:022666009CCF07
:0625A000B70198DDFCCC40
:022668009ECF03
:0625A60071DC65DDE0CCF4
:02266A00A0CFFF
:0625AC006EDC7ADDDDCCDF
:02266C00A2CFFB
:0425B20090DCDBCC12
:04266E0042CEA2CFE7
:0625B6008EDCF2DEF5CC24
:02267200A4CFF3
:0425BC00B70116CE7F
:02267400A5CFF0
:0625C00096DC47DEADCC05
:02267600A7CFEC
:0625C600B70191DDE9CC34
:0626780009CD20CDA7CF23
:0425CC0083DCA8CC38
:06267E003DCE0895A6CF39
:0425D000682DA8CCFE
:02268400A7CFDE
:0425D4006B2DA6CCF9
:02268600A8CFDB
:0425D8006A2DA4CCF8
:02268800A9CFD8
:0425DC006D2DA2CCF3
:02268A00AACFD5
:0425E0006C2DA0CCF2
:02268C00ABCFD2
:0425E40052DC9ECC5B
:02268E00ACCFCF
:0425E800652F9CCCF3
:02269000ADCFCC
:0425EC00692D9CCCED
:042692000895ADCF2B
:0425F0006B2D9ACCE9
:02269600AECFC5
:0425F4006A2D98CCE8
:02269800AFCFC2
:0425F8006D2D96CCE3
:02269A00B2C0CC
:042800006C2D92CBDE
:02269C00B3C0C9
:0428040042DB90CB58
:02269E00B4C0C6
:04280800652F8ECBDF
:0226A000B5C0C3
:04280C00692D8ECBD9
:0226A200B6C0C0
:04281000682D8CCBD8
:0426A4000895B6C01F
:042814006A2D8ACBD4
:0226A800B7C0B9
:042818006D2D88CBCF
:0226AA00B8C0B6
:04281C006C2D86CBCE
:0226AC00B9C0B3
:0428200034DB84CB56
:0226AE00BAC0B0
:04282400652F82CBCF
:0226B000BBC0AD
:04282800692D82CBC9
:0226B200BCC0AA
:04282C00682D80CBC8
:0226B400BDC0A7
:042830006B2D7ECBC3
:0426B6000895BDC006
:042834006D2D7CCBBF
:0226BA00BEC0A0
:042838006C2D7ACBBE
:0226BC00BFC09D
:04283C0026DB78CB54
:0226BE00C0C09A
:04284000652F76CBBF
:0226C000C1C097
:04284400692D76CBB9
:0226C200C2C094
:04284800682D74CBB8
:0226C400C3C091
:04284C006B2D72CBB3
:0226C600C4C08E
:042850006A2D70CBB2
:0426C8000895C4C0ED
:042854006C2D6ECBAE
:0226CC00C5C087
:0428580018DB6CCB52
:0226CE00C6C084
:04285C00652F6ACBAF
:0226D000C7C081
:04286000692D6ACBA9
:0226D200C8C07E
:04286400682D68CBA8
:0226D400C9C07B
:042868006B2D66CBA3
:0226D600CAC078
:04286C006A2D64CBA2
:0226D800CBC075
:042870006D2D62CB9D
:0426DA000895CBC0D4
:042874000ADB60CB50
:0226DE00CCC06E
:04287800652F5ECB9F
:0226E000CDC06B
:04287C00692D76CB81
:0226E200CEC068
:04288000682D74CB80
:0226E400CFC065
:042884006B2D72CB7B
:0226E600D0C062
:042888006A2D70CB7A
:0226E800D1C05F
:04288C006D2D6ECB75
:0226EA00D2C05C
:042890006C2D6CCB74
:0426EC00A9CCD2C0E3
:04289400652F6ACB77
:0226F000D3C055
:04289800692D42CB99
:0226F200D4C052
:04289C00682D40CB98
:0226F400D5C04F
:0428A0006B2D3ECB93
:0226F600D6C04C
:0428A4006A2D3CCB92
:0226F800D7C049
:0428A8006D2D3ACB8D
:0226FA00D8C046
:0428AC006C2D38CB8C
:0226FC00D9C043
:0428B000ECDA36CB5D
:0426FE000895D9C0A2
:0428B400692D44CC7A
:02270200DAC03B
:0428B800682D42CC79
:02270400DBC038
:0428BC006B2D40CC74
:02270600DCC035
:0428C0006A2D3ECC73
:02270800DDC032
:0428C4006D2D3CCC6E
:02270A00DEC02F
:0428C8006C2D3ACC6D
:02270C00DFC02C
:0428CC00DEDA38CC4C
:02270E00E0C029
:0428D000652F36CC6E
:02271000E1C026
:0428D400692D40CC5E
:02271200E2C023
:0428D800682D3ECC5D
:02271400E3C020
:0428DC006B2D3CCC58
:02271600E4C01D
:0428E0006A2D3ACC57
:02271800E5C01A
:0428E4006D2D38CC52
:02271A00E6C017
:0428E8006C2D36CC51
:02271C00E7C014
:0428EC00CEDA34CC40
:02271E00E8C011
:0428F000652F32CC52
:02272000E9C00E
:0428F400692D3FCC3F
:02272200EAC00B
:0428F800682D3DCC3E
:02272400EBC008
:0428FC006B2D3BCC39
:02272600ECC005
:042900006A2D39CC37
:02272800EDC002
:042904006D2D37CC32
:02272A00EEC0FF
:042908006C2D35CC31
:02272C00EFC0FC
:04290C00BEDA33CC30
:02272E00F0C0F9
:04291000652F31CC32
:02273000F1C0F6
:04291400692D4ACC13
:02273200F2C0F3
:04291800682D48CC12
:02273400F3C0F0
:04291C006B2D46CC0D
:02273600F4C0ED
:042920006A2D44CC0C
:02273800F5C0EA
:042924006D2D42CC07
:02273A00F6C0E7
:042928006C2D40CC06
:02273C00F7C0E4
:04292C00AEDA3ECC15
:02273E00F8C0E1
:04293000652F3CCC07
:02274000F9C0DE
:04293400692D4ACCF3
:02274200FAC0DB
:04293800682D48CCF2
:02274400FBC0D8
:04293C006B2D46CCED
:02274600FCC0D5
:042940006A2D44CCEC
:02274800FDC0D2
:042944006D2D42CCE7
:02274A00FEC0CF
:042948006C2D40CCE6
:02274C00FFC0CC
:04294C009EDA3ECC05
:02274E0000C1C8
:04295000652F3CCCE7
:0227500001C1C5
:04295400692D45CCD8
:0227520002C1C2
:04295800682D43CCD7
:0227540003C1BF
:04295C006B2D41CCD2
:0227560004C1BC
:042960006A2D3FCCD1
:0227580005C1B9
:042964006D2D3DCCCC
:02275A0006C1B6
:042968006C2D3BCCCB
:02275C0007C1B3
:04296C008EDA39CCFA
:02275E0008C1B0
:04297000652F37CCCC
:0227600009C1AD
:04297400692D30CCCD
:022762000AC1AA
:04297800682D2ECCCC
:022764000BC1A7
:04297C006B2D2CCCC7
:022766000CC1A4
:042980006A2D2ACCC6
:022768000DC1A1
:042984006D2D28CCC1
:02276A000EC19E
:042988006C2D26CCC0
:02276C000FC19B
:04298C007EDA24CCFF
:02276E0010C198
:04299000652F22CCC1
:0227700011C195
:04299400692DFCCBE2
:0227720012C192
:04299800682DFACBE1
:0227740013C18F
:04299C006B2DF8CBDC
:0227760014C18C
:0429A0006A2DF6CBDB
:0227780015C189
:0429A4006D2DF4CBD6
:02277A0016C186
:0429A8006C2DF2CBD5
:02277C0017C183
:0429AC006EDAF0CB24
:02277E0018C180
:0429B000652FEECBD6
:0227800019C17D
:0429B400E5DCFECA96
:022782001AC17A
:0429B800BCDCC2CAF7
:022784001BC177
:0629BC0098DAE0DCF0CA2D
:022786001DC173
:0429C20095DAEECAEA
:022788001EC170
:0629C60093DADBDC0FCB0D
:02278A0020C16C
:0429CC00B4019ECCE8
:02278C0021C169
:0429D00081DAB6CB27
:02278E0022C166
:0429D40032DA09CB1F
:0227900023C163
:0429D800D8DCECCA91
:0427920010CC23C183
:0629DC0088DAD5DCE0CA38
:0427960067CE24C125
:0629E20085DAD2DC01CB16
:02279A0026C156
:0429E80082DAFFCAC6
:02279C0027C153
:0429EC0073DAB4CB1B
:04279E001AC127C174
:0429F000D1DCE0CA8C
:0227A20028C14C
:0429F4009EDCA6CAF5
:0227A40029C149
:0629F8007ADACCDCD2CA41
:0227A6002BC145
:0429FE006ADA2FCB97
:0227A8002CC142
:062A020075DAC7DCF1CA21
:0227AA002EC13E
:042A0800B50180CCC8
:0227AC002FC13B
:042A0C0063DAB3CB0B
:0427AE0012C12FC164
:042A1000C6DCD0CA86
:0427B2001DCE2FC148
:062A14006CDAC3DCC4CA49
:0227B60031C12F
:042A1A005CDA26CB91
:0227B80032C12C
:062A1E0067DABEDCE3CA2A
:0427BA0037CE33C122
:042A240057DAC2CBF0
:0427BE000AC133C158
:042A2800BFDCC4CA81
:0227C20034C120
:042A2C0082DC8CCAF2
:0227C40035C11D
:062A30005EDABADCB6CA52
:0227C60037C119
:062A360035DA97DCA0CAAE
:0227C80039C115
:062A3C0058DAB4DCD4CA34
:0227CA003BC111
:042A4200B60163CCAA
:0227CC003CC10E
:042A460046DAC1CBE0
:0427CE0002C13CC147
:042A4A00B3DCB3CA7C
:0227D2003DC107
:042A4E00B601A8CA5B
:0227D4003EC104
:062A52004DDAAEDCA5CA5E
:0227D60040C100
:062A5800B50186DC73CA23
:0227D80042C1FC
:062A5E0047DAA8DCC3CA40
:0427DA0019CE43C110
:042A640037DABDCBD5
:0427DE00FAC043C139
:042A6800A9DCA4CA77
:0227E20044C1F0
:042A6C0062DC66CAF8
:0227E40045C1ED
:062A70003EDAA4DC96CA68
:0427E600C4CD46C157
:062A76003BDAA1DCB7CA47
:0227EA0048C1E4
:042A7C00BA0146CC89
:0227EC0049C1E1
:042A800029DAAACBDA
:0427EE00F2C049C12B
:042A8400A0DC96CA72
:0227F2004AC1DA
:042A8800B60189CA40
:0227F4004BC1D7
:062A8C0030DA9BDC88CA71
:0427F600C0CD4CC145
:062A92002DDA98DCA9CA50
:0427FA0026CE4DC1D9
:042A98001DDA7ACBFE
:0227FE00EAC02F
:102A9C0001970895DC011196BBB928B8ABB938B8C9
:102AAC007AB848B800C0000069B168B86AB808952F
:102ABC00F19B6985F1996B850895F19B6885F19976
:102ACC006A850895F19903C0B985A88502C0BB85B4
:102ADC00AA859BB928B88BB938B87AB848B800C061
:102AEC00000069B168B86AB80196772766230AF4C2
:102AFC007095A60FB71FBBB928B8ABB938B87AB860
:102B0C0048B800C0000069B168B86AB80895F19976
:102B1C0003C06885798508956A857B850895F19B46
:102B2C006987F1996B870895F19B6887F1996A879A
:102B3C000895F19903C0B985A88502C0BB85AA8503
:102B4C009BB928B88BB938B87AB848B800C000001F
:102B5C0009B168B86AB80196112700230AF41095D8
:102B6C00A00FB11FBBB928B8ABB938B86BB958B8FE
:102B7C0068B80895BBB928B8ABB938B86BB958B8B0
:102B8C0068B80895F19903C0B985A88502C0BB85C2
:102B9C00AA859BB928B88BB938B87AB848B800C0A0
:102BAC00000009B168B86AB8019601961127002394
:102BBC000AF41095A00FB11FBBB928B8ABB938B83F
:102BCC006BB958B868B80895F19903C068877987CC
:102BDC0008956A877B870895DB01F19B0885F1993D
:102BEC000A85BBB928B8ABB938B80BB958B868B8AE
:102BFC001196F19B0985F1990B85BBB928B8ABB936
:102C0C0038B80BB958B868B80895F19905C008855B
:102C1C0019856887798704C00A851B856A877B8735
:102C2C00B8010895F19907C008851985600F711FC7
:102C3C006887798706C00A851B85600F711F6A87B4
:102C4C007B870FB700FB40F905FB44F94D7F0895D6
:102E00004DCE4CCE4BCE4ACE49CE48CE47CE46CE06
:042E100045CE24CFB8
:042C5C00B401E8CF08
:102E140043CE42CE41CE40CE3FCE3ECE3DCE3CCE42
:102E24003BCE3ACE39CE38CE37CE36CE35CE16CF8F
:042C6000B501E6CF05
:102E340033CE32CE31CE30CE2FCE2ECE2DCE10CFBD
:042C640044D9B6CFCA
:022E440011CFAC
:042C680042D9BCCFC2
:022E460012CFA9
:062C6C0056DF32DAB1CFA1
:022E480014CFA5
:062C720024DFFFD959CF59
:022E4A0016CFA1
:062C780021DF14DA56CF43
:022E4C0018CF9D
:042C7E002AD954CF2C
:062E4E0026CE25CE17CFB1
:042C82004BDFD5CF80
:022E540018CF95
:062C860033D9CBDAA4CF24
:022E56001ACF91
:062C8C0046DF2EDAA1CFA5
:022E58001CCF8D
:062C920019DFEFD94ECF5F
:022E5A001ECF89
:062C980016DF04DA4BCF49
:022E5C0020CF85
:042C9E001AD949CF27
:0C2E5E001ECE1DCE1CCE1BCE1ACE1CCFEB
:062CA20016DFE7D96CCF3C
:022E6A001ECF79
:062CA80013DFFCD969CF27
:022E6C0020CF75
:042CAE00F8DE6FCF0E
:062E6E0016CE15CE1FCFA9
:042CB200B701BDCFDA
:102E740013CE12CE11CE10CE0FCE0ECE0DCE0CCE62
:062E84000BCE0ACE16CFB2
:042CB60002DF35C93B
:022E8A0017CF60
:042CBA0005DF33C936
:022E8C0018CF5D
:042CBE0008DF31C931
:0C2E8E0006CE05CE04CE03CE02CE14CF3B
:042CC200FCDE31C93A
:022E9A0015CF52
:042CC600FFDE2FC935
:022E9C0016CF4F
:042CCA0002DF2DC92F
:0C2E9E00FECDFDCDFCCDFBCDFACD12CF5A
:042CCE00F6DE2DC938
:022EAA0013CF44
:042CD200F9DE2BC933
:022EAC0014CF41
:042CD600FCDE29C92E
:0C2EAE00F6CDF5CDF4CDF3CDF2CD10CF74
:042CDA00F0DE29C936
:022EBA0011CF36
:042CDE00F3DE27C931
:022EBC0012CF33
:042CE200F6DE25C92C
:042EBE00EECD12CF74
:042CE600692D20CF65
:022EC20013CF2C
:042CEA00682D1ECF64
:022EC40014CF29
:042CEE006B2D1CCF5F
:022EC60015CF26
:042CF2006A2D1ACF5E
:042EC800E9CD15CF6C
:042CF600E7DE18CF2E
:022ECC0016CF1F
:042CFA00EADE1BC92A
:022ECE0017CF1C
:042CFE00652F14CF5B
:022ED00018CF19
:042D0200692D17CF51
:022ED20019CF16
:042D0600682D15CF50
:022ED4001ACF13
:042D0A006B2D13CF4B
:022ED6001BCF10
:042D0E006A2D11CF4A
:022ED8001CCF0D
:042D1200D4DE0FCF2D
:042EDA00E0CD1CCF5C
:042D1600DCDE0FC927
:022EDE001DCF06
:042D1A00652F0BCF47
:022EE0001ECF03
:042D1E00692D0ECF3E
:022EE2001FCF00
:042D2200682D0CCF3D
:022EE40020CFFD
:042D26006B2D0ACF38
:022EE60021CFFA
:042D2A006A2D08CF37
:022EE80022CFF7
:042D2E006D2D06CF32
:022EEA0023CFF4
:042D32006C2D04CF31
:042EEC00D7CD23CF4C
:042D3600652F02CF34
:0A2EF000D5CDD4CDD3CDD2CD20CF67
:042D3A00C0DEF1C83E
:022EFA0021CFE6
:042D3E00C3DEEFC839
:022EFC0022CFE3
:042D4200C6DEEDC834
:0C2EFE00CECDCDCDCCCDCBCDCACD1ECFDE
:042D4600BADEFBC92D
:022F0A001FCFD7
:042D4A00BDDEF9C928
:022F0C0020CFD4
:042D4E00C0DEF7C923
:0C2F0E00C6CDC5CDC4CDC3CDC2CD1CCFF7
:042D5200B4DE01CA20
:022F1A001DCFC9
:042D5600B7DEFFC91C
:022F1C001ECFC6
:042D5A00BADEFDC917
:0C2F1E00BECDBDCDBCCDBBCDBACD1ACF11
:042D5E00AEDE0ACA11
:022F2A001BCFBB
:042D6200B1DE08CA0C
:022F2C001CCFB8
:042D6600B4DE06CA07
:0C2F2E00B6CDB5CDB4CDB3CDB2CD18CF2B
:042D6A00A8DE1FCAF6
:022F3A0019CFAD
:042D6E00ABDE1DCAF1
:022F3C001ACFAA
:042D7200AEDE1BCAEC
:0C2F3E00AECDADCDACCDABCDAACD16CF45
:042D7600A2DE29CAE6
:022F4A0017CF9F
:042D7A00A5DE27CAE1
:022F4C0018CF9C
:042D7E00A8DE25CADC
:0C2F4E00A6CDA5CDA4CDA3CDA2CD14CF5F
:042D82009CDE2ECADB
:022F5A0015CF91
:042D86009FDE2CCAD6
:022F5C0016CF8E
:042D8A00A2DE2ACAD1
:0C2F5E009ECD9DCD9CCD9BCD9ACD12CF79
:042D8E0096DE23CAE0
:022F6A0013CF83
:042D920099DE21CADB
:022F6C0014CF80
:042D96009CDE1FCAD6
:0C2F6E0096CD95CD94CD93CD92CD10CF93
:042D9A0090DEF9C905
:022F7A0011CF75
:042D9E0093DEF7C900
:022F7C0012CF72
:042DA20096DEF5C9FB
:102F7E008ECD8DCD8CCD8BCD8ACD89CD88CD87CD87
:102F8E0086CD85CD84CD83CD75CA81CD80CD7FCDC7
:102F9E007ECD7DCD7CCD7BCD7ACD79CD78CD77CDE7
:102FAE0076CD75CD74CD73CD72CD71CD70CD6FCD17
:062FBE006ECD6DCDF1CED9
:042DA600C5DA15CFA6
:042FC4006BCDF1CE12
:062DAA007BD834DFE6C80F
:042FC80069CDF2CE0F
:042DB000B4DEACCA17
:082FCC0067CD66CD65CDF0CEA6
:042DB400B2DEF5C8CE
:102FD40063CD62CD61CD60CD5FCD5ECD5DCD5CCD89
:102FE4005BCD5ACD59CD58CD57CD56CD55CDE2CE2A
:042DB800B0DEF1C8D0
:0C2FF40053CD52CD51CD50CD4FCD4ECD20
:102DBC000027660F071D602BF4E4E62F4491402B8F
:102DCC000895669508F46068F4E4E62F449167FB77
:102DDC0040F90895889440FD0894661F0FB7F4E4F9
:0A2DEC00E62F449100FB40F9089522
:1030000067950FB740FB67F9F4E4E62F449100FBA6
:1030100040F90895660F0FB7F4E4E62F449100FBE2
:1030200040F9089566950FB766FB67F9F4E4E62F5B
:10303000449100FB40F908950894661F0FB7F4E42B
:10304000E62F449100FB40F9089566950FB7F4E42C
:10305000E62F449100FB40F9089500E80DC000E41C
:103060000BC000E209C000E107C008E005C004E0B1
:1030700003C002E001C001E04D7B4061062309F47A
:1030800040640895962E0895862E0895B62E0895CC
:10309000A62E0895D62E0895C62E0895562F08956B
:1030A000DBB828B8CBB838B87AB848B800C0000048
:0830B00069B168B86AB808951F
:023200005BCFA2
:0630B800692D80DEE3CF6C
:023202005DCF9E
:0630BE00682D7DDEE2CF6B
:023204005FCF9A
:0630C4006B2D7ADEE1CF66
:0232060061CF96
:0630CA006A2D77DEE0CF65
:0232080063CF92
:0630D0006D2D74DEDFCF60
:02320A0065CF8E
:0630D6006C2D71DEDECF5F
:02320C0067CF8A
:0830DC00E1DF6EDE0C94B60F7B
:02320E006ACF85
:0630E400652F6ADED9CF62
:023210006CCF81
:0630EA00692D70DECACF63
:023212006ECF7D
:0630F000682D6DDEC9CF62
:0232140070CF79
:0630F6006B2D6ADEC8CF5D
:0232160072CF75
:0630FC006A2D67DEC7CF5C
:0232180074CF71
:063102006D2D64DEC6CF56
:02321A0076CF6D
:063108006C2D61DEC5CF55
:02321C0078CF69
:08310E00C8DF5EDE0C94B60F71
:02321E007BCF64
:06311600652F5ADEC0CF58
:023220007DCF60
:06311C00692D60DEB1CF59
:023222007FCF5C
:06312200682D5DDEB0CF58
:0232240081CF58
:063128006B2D5ADEAFCF53
:0232260083CF54
:06312E006A2D57DEAECF52
:0232280085CF50
:063134006D2D54DEADCF4D
:02322A0087CF4C
:06313A006C2D51DEACCF4C
:02322C0089CF48
:08314000AFDF4EDE0C94B60F68
:02322E008CCF43
:06314800652F4ADEA7CF4F
:023230008ECF3F
:06314E00692D57DF98CF48
:0232320090CF3B
:06315400682D54DF97CF47
:0232340092CF37
:06315A006B2D51DF96CF42
:0232360094CF33
:063160006A2D4EDF95CF41
:0232380096CF2F
:063166006D2D4BDF94CF3C
:02323A0098CF2B
:06316C006C2D48DF93CF3B
:02323C009ACF27
:0831720096DF45DF0C94B60F57
:02323E009DCF22
:06317A00652F41DF8ECF3E
:023240009FCF1E
:06318000692D48DF7FCF3E
:02324200A1CF1A
:06318600682D45DF7ECF3D
:02324400A3CF16
:06318C006B2D42DF7DCF38
:02324600A5CF12
:063192006A2D3FDF7CCF37
:02324800A7CF0E
:063198006D2D3CDF7BCF32
:02324A00A9CF0A
:06319E006C2D39DF7ACF31
:02324C00ABCF06
:0831A4007DDF36DF0C94B60F4D
:02324E00AECF01
:0631AC00652F32DF75CF34
:02325000B0CFFD
:0631B200692D37DF66CF36
:02325200B2CFF9
:0631B800682D34DF65CF35
:02325400B4CFF5
:0631BE006B2D31DF64CF30
:02325600B6CFF1
:0631C4006A2D2EDF63CF2F
:02325800B8CFED
:0631CA006D2D2BDF62CF2A
:02325A00BACFE9
:0631D0006C2D28DF61CF29
:02325C00BCCFE5
:0831D60064DF25DF0C94B60F45
:02325E00BFCFE0
:0631DE00652F21DF5CCF2C
:02326000C1CFDC
:0631E400692D28DF4DCF2C
:02326200C3CFD8
:0631EA00682D25DF4CCF2B
:02326400C5CFD4
:0631F0006B2D22DF4BCF26
:02326600CCC0DA
:063400006A2D1ADE45CE24
:02326800CEC0D6
:063406006D2D17DE44CE1F
:02326A00D0C0D2
:06340C006C2D14DE43CE1E
:02326C00D2C0CE
:0834120046DE11DE0C94B60F3A
:02326E00D5C0C9
:06341A00652F0DDE3ECE21
:02327000D7C0C5
:06342000692D13DE2FCE22
:02327200D9C0C1
:06342600682D10DE2ECE21
:02327400DBC0BD
:06342C006B2D0DDE2DCE1C
:02327600DDC0B9
:063432006A2D0ADE2CCE1B
:02327800DFC0B5
:063438006D2D07DE2BCE16
:02327A00E1C0B1
:06343E006C2D04DE2ACE15
:02327C00E3C0AD
:083444002DDE01DE0C94B60F31
:02327E00E6C0A8
:06344C00652FFDDD25CE19
:02328000E8C0A4
:04345200692D10CE02
:02328200E9C0A1
:04345600682D0ECE01
:02328400EAC09E
:04345A006B2D0CCEFC
:02328600EBC09B
:04345E006A2D0ACEFB
:02328800ECC098
:043462006D2D08CEF6
:02328A00EDC095
:043466006C2D06CEF5
:02328C00EEC092
:04346A001ADE04CE94
:02328E00EFC08F
:04346E00652F02CEF6
:02329000F0C08C
:04347200692DFECDF5
:02329200F1C089
:04347600682DFCCDF4
:02329400F2C086
:04347A006B2DFACDEF
:02329600F3C083
:04347E006A2DF8CDEE
:02329800F4C080
:043482006D2DF6CDE9
:02329A00F5C07D
:043486006C2DF4CDE8
:02329C00F6C07A
:04348A000ADEF2CD97
:02329E00F7C077
:04348E00652FF0CDE9
:0232A000F8C074
:04349200692DECCDE7
:0232A200F9C071
:04349600682DEACDE6
:0232A400FAC06E
:04349A006B2DE8CDE1
:0232A600FBC06B
:04349E006A2DE6CDE0
:0232A800FCC068
:0434A2006D2DE4CDDB
:0232AA00FDC065
:0434A6006C2DE2CDDA
:0232AC00FEC062
:0434AA00FADDE0CD9A
:0232AE00FFC05F
:0434AE00652FDECDDB
:0232B00000C15B
:0434B200692DDACDD9
:0232B20001C158
:0434B600682DD8CDD8
:0232B40002C155
:0434BA006B2DD6CDD3
:0232B60003C152
:0434BE006A2DD4CDD2
:0232B80004C14F
:0434C2006D2DD2CDCD
:0232BA0005C14C
:0434C6006C2DD0CDCC
:0232BC0006C149
:0434CA00EADDCECD9C
:0232BE0007C146
:0434CE00652FCCCDCD
:0232C00008C143
:0434D200692DC8CDCB
:0232C20009C140
:0434D600682DC6CDCA
:0232C4000AC13D
:0434DA006B2DC4CDC5
:0232C6000BC13A
:0434DE006A2DC2CDC4
:0232C8000CC137
:0434E2006D2DC0CDBF
:0232CA000DC134
:0434E6006C2DBECDBE
:0232CC000EC131
:0434EA00DADDBCCD9E
:0232CE000FC12E
:0434EE00652FBACDBF
:0232D00010C12B
:0434F200692DB6CDBD
:0232D20011C128
:0434F600682DB4CDBC
:0232D40012C125
:0434FA006B2DB2CDB7
:0232D60013C122
:0434FE006A2DB0CDB6
:0232D80014C11F
:043502006D2DAECDB0
:0232DA0015C11C
:043506006C2DACCDAF
:0232DC0016C119
:04350A00CADDAACD9F
:0232DE0017C116
:04350E00652FA8CDB0
:0232E00018C113
:04351200692DA4CDAE
:0232E20019C110
:04351600682DA2CDAD
:0232E4001AC10D
:04351A006B2DA0CDA8
:0232E6001BC10A
:04351E006A2D9ECDA7
:0232E8001CC107
:043522006D2D9CCDA2
:0232EA001DC104
:043526006C2D9ACDA1
:0232EC001EC101
:04352A00BADD98CDA1
:0232EE001FC1FE
:04352E00652F96CDA2
:0232F00020C1FB
:04353200692D92CDA0
:0232F20021C1F8
:04353600682D90CD9F
:0232F40022C1F5
:04353A006B2D8ECD9A
:0232F60023C1F2
:04353E006A2D8CCD99
:0232F80024C1EF
:043542006D2D8ACD94
:0232FA0025C1EC
:043546006C2D88CD93
:0232FC0026C1E9
:04354A00AADD86CDA3
:0232FE0027C1E6
:04354E00652F84CD94
:0233000028C1E2
:06355200692D6E7F96CD8D
:023302002AC1DE
:06355800682D6E7F95CD89
:023304002CC1DA
:06355E006B2D6E7F94CD81
:023306002EC1D6
:063564006A2D6E7F93CD7D
:0233080030C1D2
:06356A006D2D6E7F92CD75
:02330A0032C1CE
:063570006C2D6E7F91CD71
:02330C0034C1CA
:0835760094DD6E7F0C94B60F8A
:02330E0037C1C5
:06357E00652F6E7F8CCD6D
:0233100039C1C1
:06358400692D6D7F7DCD75
:023312003BC1BD
:06358A00682D6D7F7CCD71
:023314003DC1B9
:063590006B2D6D7F7BCD69
:023316003FC1B5
:063596006A2D6D7F7ACD65
:0233180041C1B1
:06359C006D2D6D7F79CD5D
:02331A0043C1AD
:0635A2006C2D6D7F78CD59
:02331C0045C1A9
:0835A8007BDD6D7F0C94B60F72
:02331E0048C1A4
:0635B000652F6D7F73CD55
:023320004AC1A0
:0635B600692D6B7F64CD5E
:023322004CC19C
:0635BC00682D6B7F63CD5A
:023324004EC198
:0635C2006B2D6B7F62CD52
:0233260050C194
:0635C8006A2D6B7F61CD4E
:0233280052C190
:0635CE006D2D6B7F60CD46
:02332A0054C18C
:0635D4006C2D6B7F5FCD42
:02332C0056C188
:0835DA0062DD6B7F0C94B60F5B
:02332E0059C183
:0635E200652F6B7F5ACD3E
:023330005BC17F
:0635E800692D677F4BCD49
:023332005DC17B
:0635EE00682D677F4ACD45
:023334005FC177
:0635F4006B2D677F49CD3D
:0233360061C173
:0635FA006A2D677F48CD39
:0233380063C16F
:063600006D2D677F47CD30
:02333A0065C16B
:063606006C2D677F46CD2C
:02333C0067C167
:08360C0049DD677F0C94B60F45
:02333E006AC162
:06361400652F677F41CD28
:023340006CC15E
:06361A00692D6F7E32CD28
:023342006EC15A
:06362000682D6F7E31CD24
:0233440070C156
:063626006B2D6F7E30CD1C
:0233460072C152
:06362C006A2D6F7E2FCD18
:0233480074C14E
:063632006D2D6F7E2ECD10
:02334A0076C14A
:063638006C2D6F7E2DCD0C
:02334C0078C146
:08363E0030DD6F7E0C94B60F25
:02334E007BC141
:06364600652F6F7E28CD08
:023350007DC13D
:06364C00692D6F7D19CD10
:023352007FC139
:06365200682D6F7D18CD0C
:0233540081C135
:063658006B2D6F7D17CD04
:0233560083C131
:06365E006A2D6F7D16CD00
:0233580085C12D
:063664006D2D6F7D15CDF8
:02335A0087C129
:06366A006C2D6F7D14CDF4
:02335C0089C125
:0836700017DD6F7D0C94B60F0D
:02335E008CC120
:06367800652F6F7D0FCDF0
:023360008EC11C
:06367E00692D6F7B00CDF9
:0233620090C118
:06368400682D6F7BFFCCF6
:0233640092C114
:06368A006B2D6F7BFECCEE
:0233660094C110
:063690006A2D6F7BFDCCEA
:0233680096C10C
:063696006D2D6F7BFCCCE2
:02336A0098C108
:06369C006C2D6F7BFBCCDE
:02336C009AC104
:0836A200FEDC6F7B0C94B60FF7
:02336E009DC1FF
:0636AA00652F6F7BF6CCDA
:023370009FC1FB
:0636B000692D6F77E7CCE5
:02337200A1C1F7
:0636B600682D6F77E6CCE1
:02337400A3C1F3
:0636BC006B2D6F77E5CCD9
:02337600A5C1EF
:0636C2006A2D6F77E4CCD5
:02337800A7C1EB
:0636C8006D2D6F77E3CCCD
:02337A00A9C1E7
:0636CE006C2D6F77E2CCC9
:02337C00ABC1E3
:0836D400E5DC6F770C94B60FE2
:02337E00AEC1DE
:0636DC00652F6F77DDCCC5
:02338000B0C1DA
:0636E200692D6160CECCF1
:02338200B2C1D6
:0636E800682D6160CDCCED
:02338400B4C1D2
:0636EE006B2D6160CCCCE5
:02338600B6C1CE
:0636F4006A2D6160CBCCE1
:02338800B8C1CA
:0636FA006D2D6160CACCD9
:02338A00BAC1C6
:063700006C2D6160C9CCD4
:02338C00BCC1C2
:08370600CCDC61600C94B60FED
:02338E00BFC1BD
:06370E00652F6160C4CCD0
:02339000C1C1B9
:06371400692D6260B5CCD6
:02339200C3C1B5
:06371A00682D6260B4CCD2
:02339400C5C1B1
:063720006B2D6260B3CCCA
:02339600C7C1AD
:063726006A2D6260B2CCC6
:02339800C9C1A9
:06372C006D2D6260B1CCBE
:02339A00CBC1A5
:063732006C2D6260B0CCBA
:02339C00CDC1A1
:08373800B3DC62600C94B60FD3
:02339E00D0C19C
:06374000652F6260ABCCB6
:0233A000D2C198
:06374600692D64609CCCBB
:0233A200D4C194
:06374C00682D64609BCCB7
:0233A400D6C190
:063752006B2D64609ACCAF
:0233A600D8C18C
:063758006A2D646099CCAB
:0233A800DAC188
:06375E006D2D646098CCA3
:0233AA00DCC184
:063764006C2D646097CC9F
:0233AC00DEC180
:08376A009ADC64600C94B60FB8
:0233AE00E1C17B
:06377200652F646092CC9B
:0233B000E3C177
:06377800692D686083CC9E
:0233B200E5C173
:06377E00682D686082CC9A
:0233B400E7C16F
:063784006B2D686081CC92
:0233B600E9C16B
:06378A006A2D686080CC8E
:0233B800EBC167
:063790006D2D68607FCC86
:0233BA00EDC163
:063796006C2D68607ECC82
:0233BC00EFC15F
:08379C0081DC68600C94B60F9B
:0233BE00F2C15A
:0637A400652F686079CC7E
:0233C000F4C156
:0637AA00692D60616ACC8C
:0233C200F6C152
:0637B000682D606169CC88
:0233C400F8C14E
:0637B6006B2D606168CC80
:0233C600FAC14A
:0637BC006A2D606167CC7C
:0233C800FCC146
:0637C2006D2D606166CC74
:0233CA00FEC142
:0637C8006C2D606165CC70
:0233CC0000C23D
:0837CE0068DC60610C94B60F89
:0233CE0003C238
:0637D600652F606160CC6C
:0233D00005C234
:0637DC00692D606251CC72
:0233D20007C230
:0637E200682D606250CC6E
:0233D40009C22C
:0637E8006B2D60624FCC66
:0233D6000BC228
:0637EE006A2D60624ECC62
:0233D8000DC224
:0637F4006D2D60624DCC5A
:0233DA000FC220
:0637FA006C2D60624CCC56
:0233DC0011C21C
:083800004FDC60620C94B60F6E
:0233DE0014C217
:06380800652F606247CC51
:0233E00016C213
:06380E00692D606438CC56
:0233E20018C20F
:06381400682D606437CC52
:0233E4001AC20B
:06381A006B2D606436CC4A
:0233E6001CC207
:063820006A2D606435CC46
:0233E8001EC203
:063826006D2D606434CC3E
:0233EA0020C2FF
:06382C006C2D606433CC3A
:0233EC0022C2FB
:0838320036DC60640C94B60F53
:0233EE0025C2F6
:06383A00652F60642ECC36
:0233F00027C2F2
:06384000692D60681FCC39
:0233F20029C2EE
:06384600682D60681ECC35
:0233F4002BC2EA
:06384C006B2D60681DCC2D
:0233F6002DC2E6
:063852006A2D60681CCC29
:0233F8002FC2E2
:063858006D2D60681BCC21
:0233FA0031C2DE
:06385E006C2D60681ACC1D
:0233FC0033C2DA
:083864001DDC60680C94B60F36
:0233FE0036C2D5
:06386C00652F606815CC19
:023A000038CFBD
:04387200A4DA07CC01
:023A020039CFBA
:04387600A2DA07CCFF
:023A04003ACFB7
:04387A00A0DA07CCFD
:023A06003BCFB4
:04387E009EDA07CCFB
:023A08003CCFB1
:043882009CDA07CCF9
:023A0A003DCFAE
:043886009ADA07CCF7
:043A0C00D7C93DCF0A
:04388A0098DA07CCF5
:023A10003ECFA7
:04388E009FDAF9CBF9
:023A12003FCFA4
:043892009DDAF9CBF7
:023A140040CFA1
:043896009BDAF9CBF5
:023A160041CF9E
:04389A0099DAF9CBF3
:023A180042CF9B
:04389E0097DAF9CBF1
:023A1A0043CF98
:0438A20095DAF9CBEF
:043A1C00D8C943CFF3
:0438A60093DAF9CBED
:023A200044CF91
:0438AA009ADAEBCBF0
:023A220045CF8E
:0438AE0098DAEBCBEE
:023A240046CF8B
:0438B20096DAEBCBEC
:023A260047CF88
:0438B60094DAEBCBEA
:023A280048CF85
:0438BA0092DAEBCBE8
:023A2A0049CF82
:0438BE0090DAEBCBE6
:043A2C00D9C949CFDC
:0438C2008EDAEBCBE4
:023A30004ACF7B
:0438C6009CDBDDCBDF
:023A32004BCF78
:0438CA009ADBDDCBDD
:023A34004CCF75
:0438CE0098DBDDCBDB
:023A36004DCF72
:0438D20096DBDDCBD9
:023A38004ECF6F
:0438D60094DBDDCBD7
:023A3A004FCF6C
:0438DA0092DBDDCBD5
:043A3C00E1CA4FCFBD
:0438DE0090DBDDCBD3
:023A400050CF65
:0438E20098DBCFCBD5
:023A420051CF62
:0438E60096DBCFCBD3
:023A440052CF5F
:0438EA0094DBCFCBD1
:023A460053CF5C
:0438EE0092DBCFCBCF
:023A480054CF59
:0438F20090DBCFCBCD
:023A4A0055CF56
:0438F6008EDBCFCBCB
:043A4C00E3CA55CFA5
:0438FA008CDBCFCBC9
:023A500056CF4F
:0438FE0092DBC1CBCD
:023A520057CF4C
:0439020090DBC1CBCA
:023A540058CF49
:043906008EDBC1CBC8
:023A560059CF46
:04390A008CDBC1CBC6
:023A58005ACF43
:04390E008ADBC1CBC4
:023A5A005BCF40
:0439120088DBC1CBC2
:043A5C00E3CA5BCF8F
:0439160086DBC1CBC0
:023A60005CCF39
:04391A008EDBB3CBC2
:023A62005DCF36
:04391E008CDBB3CBC0
:023A64005ECF33
:043922008ADBB3CBBE
:023A66005FCF30
:0439260088DBB3CBBC
:023A680060CF2D
:04392A0086DBB3CBBA
:023A6A0061CF2A
:04392E0084DBB3CBB8
:043A6C00E5CA61CF77
:0439320082DBB3CBB6
:023A700062CF23
:0439360089DBA5CBB9
:023A720063CF20
:04393A0087DBA5CBB7
:023A740064CF1D
:04393E0085DBA5CBB5
:023A760065CF1A
:0439420083DBA5CBB3
:023A780066CF17
:0439460081DBA5CBB1
:023A7A0067CF14
:04394A007FDBA5CBAF
:043A7C00E6CA67CF60
:04394E007DDBA5CBAD
:103A8000FACAF9CAF8CAF7CAF6CAF5CAF4CAF3CA32
:103A9000F0CAEFCAEECAEDCAECCAEBCAEACAE9CA72
:103AA000E6CAE5CAE4CAE3CAE2CAE1CAE0CADFCAB2
:103AB000DCCADBCADACAD9CAD8CAD7CAD6CAD5CAF2
:103AC000D2CAD1CAD0CACFCACECACDCACCCACBCA32
:103AD000C8CAC7CAC6CAC5CAC4CAC3CAC2CAC1CA72
:103AE000BECABDCABCCABBCABACAB9CAB8CAB7CAB2
:103AF000B4CAB3CAB2CAB1CAB0CAAFCAAECAADCAF2
:023B000028CFCC
:043952006E7F97CB22
:023B020029CFC9
:043956006E7F97CB1E
:023B04002ACFC6
:04395A006E7F97CB1A
:023B06002BCFC3
:04395E006E7F97CB16
:023B08002CCFC0
:043962006E7F97CB12
:023B0A002DCFBD
:043966006E7F97CB0E
:023B0C002ECFBA
:04396A006E7F0895CF
:023B0E002FCFB7
:04396E006E7F95CB08
:023B100030CFB4
:043972006D7F87CB13
:023B120031CFB1
:043976006D7F87CB0F
:023B140032CFAE
:04397A006D7F87CB0B
:023B160033CFAB
:04397E006D7F87CB07
:023B180034CFA8
:043982006D7F87CB03
:023B1A0035CFA5
:043986006D7F87CBFF
:023B1C0036CFA2
:04398A006D7F0895B0
:023B1E0037CF9F
:04398E006D7F85CBF9
:023B200038CF9C
:043992006B7F77CB05
:023B220039CF99
:043996006B7F77CB01
:023B24003ACF96
:04399A006B7F77CBFD
:023B26003BCF93
:04399E006B7F77CBF9
:023B28003CCF90
:0439A2006B7F77CBF5
:023B2A003DCF8D
:0439A6006B7F77CBF1
:023B2C003ECF8A
:0439AA006B7F089592
:023B2E003FCF87
:0439AE006B7F75CBEB
:023B300040CF84
:0439B200677F67CBF9
:023B320041CF81
:0439B600677F67CBF5
:023B340042CF7E
:0439BA00677F67CBF1
:023B360043CF7B
:0439BE00677F67CBED
:023B380044CF78
:0439C200677F67CBE9
:023B3A0045CF75
:0439C600677F67CBE5
:023B3C0046CF72
:0439CA00677F089576
:023B3E0047CF6F
:0439CE00677F65CBDF
:023B400048CF6C
:0439D2006F7E57CBE2
:023B420049CF69
:0439D6006F7E57CBDE
:023B44004ACF66
:0439DA006F7E57CBDA
:023B46004BCF63
:0439DE006F7E57CBD6
:023B48004CCF60
:0439E2006F7E57CBD2
:023B4A004DCF5D
:0439E6006F7E57CBCE
:023B4C004ECF5A
:0439EA006F7E08954F
:023B4E004FCF57
:0439EE006F7E55CBC8
:023B500050CF54
:0439F2006F7D47CBD3
:023B520051CF51
:0439F6006F7D47CBCF
:023B540055C05A
:043C00006F7D44CAC6
:023B560056C057
:043C04006F7D44CAC2
:023B580057C054
:043C08006F7D44CABE
:023B5A0058C051
:043C0C006F7D44CABA
:023B5C0059C04E
:043C10006F7D089527
:023B5E005AC04B
:043C14006F7D42CAB4
:023B60005BC048
:043C18006F7B34CAC0
:023B62005CC045
:043C1C006F7B34CABC
:023B64005DC042
:043C20006F7B34CAB8
:023B66005EC03F
:043C24006F7B34CAB4
:023B68005FC03C
:043C28006F7B34CAB0
:023B6A0060C039
:043C2C006F7B34CAAC
:023B6C0061C036
:043C30006F7B089509
:023B6E0062C033
:043C34006F7B32CAA6
:023B700063C030
:043C38006F7724CAB4
:023B720064C02D
:043C3C006F7724CAB0
:023B740065C02A
:043C40006F7724CAAC
:023B760066C027
:043C44006F7724CAA8
:023B780067C024
:043C48006F7724CAA4
:023B7A0068C021
:043C4C006F7724CAA0
:023B7C0069C01E
:043C50006F770895ED
:023B7E006AC01B
:043C54006F7722CA9A
:023B80006BC018
:043C5800616014CAC9
:023B82006CC015
:043C5C00616014CAC5
:023B84006DC012
:043C6000616014CAC1
:023B86006EC00F
:043C6400616014CABD
:023B88006FC00C
:043C6800616014CAB9
:023B8A0070C009
:043C6C00616014CAB5
:023B8C0071C006
:043C700061600895F2
:023B8E0072C003
:043C7400616012CAAF
:023B900073C000
:043C7800626004CAB8
:023B920074C0FD
:043C7C00626004CAB4
:023B940075C0FA
:043C8000626004CAB0
:023B960076C0F7
:043C8400626004CAAC
:023B980077C0F4
:043C8800626004CAA8
:023B9A0078C0F1
:043C8C00626004CAA4
:023B9C0079C0EE
:043C900062600895D1
:023B9E007AC0EB
:043C9400626002CA9E
:023BA0007BC0E8
:043C98006460F4C9A7
:023BA2007CC0E5
:043C9C006460F4C9A3
:023BA4007DC0E2
:043CA0006460F4C99F
:023BA6007EC0DF
:043CA4006460F4C99B
:023BA8007FC0DC
:043CA8006460F4C997
:023BAA0080C0D9
:043CAC006460F4C993
:023BAC0081C0D6
:043CB00064600895AF
:023BAE0082C0D3
:043CB4006460F2C98D
:023BB00083C0D0
:043CB8006860E4C993
:023BB20084C0CD
:043CBC006860E4C98F
:023BB40085C0CA
:043CC0006860E4C98B
:023BB60086C0C7
:043CC4006860E4C987
:023BB80087C0C4
:043CC8006860E4C983
:023BBA0088C0C1
:043CCC006860E4C97F
:023BBC0089C0BE
:043CD000686008958B
:023BBE008AC0BB
:043CD4006860E2C979
:023BC0008BC0B8
:043CD8006061D4C98A
:023BC2008CC0B5
:043CDC006061D4C986
:023BC4008DC0B2
:043CE0006061D4C982
:023BC6008EC0AF
:043CE4006061D4C97E
:023BC8008FC0AC
:043CE8006061D4C97A
:023BCA0090C0A9
:043CEC006061D4C976
:023BCC0091C0A6
:043CF0006061089572
:023BCE0092C0A3
:043CF4006061D2C970
:023BD00093C0A0
:043CF8006062C4C979
:023BD20094C09D
:043CFC006062C4C975
:023BD40095C09A
:043D00006062C4C970
:023BD60096C097
:043D04006062C4C96C
:023BD80097C094
:043D08006062C4C968
:023BDA0098C091
:043D0C006062C4C964
:023BDC0099C08E
:043D10006062089550
:023BDE009AC08B
:043D14006062C2C95E
:023BE0009BC088
:043D18006064B4C966
:023BE2009CC085
:043D1C006064B4C962
:023BE4009DC082
:043D20006064B4C95E
:023BE6009EC07F
:043D24006064B4C95A
:023BE8009FC07C
:043D28006064B4C956
:023BEA00A0C079
:043D2C006064B4C952
:023BEC00A1C076
:043D3000606408952E
:023BEE00A2C073
:043D34006064B2C94C
:023BF000A3C070
:043D38006068A4C952
:023BF200A4C06D
:043D3C006068A4C94E
:023BF400A5C06A
:043D40006068A4C94A
:023BF600A6C067
:043D44006068A4C946
:023BF800A7C064
:043D48006068A4C942
:023BFA00A8C061
:043D4C006068A4C93E
:023BFC00A9C05E
:043D5000606808950A
:023BFE00AAC05B
:103D54006068A2C9162F0E94B722602F40FBF4E4CA
:103D6400E02F449140F90895062F182D0E94B522A2
:103D74000895DB01BBB928B8ABB938B88BB858B8CB
:103D840068B81196BBB928B8ABB938B89BB858B85D
:103D940068B80895DB01BBB928B8ABB938B8ABB87B
:103DA40058B868B81196BBB928B8ABB938B8BBB81D
:103DB40058B868B80895DB01BBB928B8ABB938B8AE
:103DC400EBB858B868B81196BBB928B8ABB938B8CD
:103DD400FBB858B868B80895469540E0C61E0FB7BA
:103DE400D71E1FB7012310FB40F913FB42F915FB43
:103DF40044F901FB46F912FB47F9089546951894D6
:103E0400C60AD70A0FB742E000FB40F903FB42F9A8
:103E140005FB44F901FB46F902FB47F9089500E06C
:103E2400051B502F0FB7F4E4E52F449100FB40F934
:103E340005FB44F903FB42F9426008950E8503FB38
:103E440002F90E870C94DA0F0E850C7F0E87089505
:103E54000E850C7F01600E8708950E850C7F02602D
:103E64000E8708955C8501C05D8540FBF4E4E52F71
:103E7400449140F90E8503FB42F908955C87089547
:103E84005D8708956295762F607F7F70052F0F7090
:103E9400602B052F007F072B502F40FBF4E4E52F08
:103EA400449140F90895762F607F7F70052F0F703D
:103EB400602B6295052F007F072B502F40FBF4E405
:103EC400E52F449140F90895DBB828B8CBB838B849
:103ED4007AB848B800C0000009B168B86AB8BBB87D
:103EE40028B8ABB838B80BB958B868B8497ED4010B
:103EF40011974D0109F044600895E6DFA618B6084D
:103F0400C618D6080895E0DFA60CB61CC60CD61C4D
:103F14000895F3DF42FDFDCF0895F5DF42FDFDCFA7
:103F24000895D601F4014B7242600E94E7075017CE
:103F34000AF4406809F440640DF44061319709F0D3
:103F440044604F010895EDDF11966D010895E9DF96
:103F540011976D010895F7DF46FD089542FF089516
:103F640002970895F4DF46FD089542FF08950297ED
:103F740008954F7B4260182D0E94B722D6010E94FB
:103F8400F3079A9409F440640895F3DF11966D01E0
:103F94000895EFDF11976D010895F7DF46FD089549
:103FA40002970895F6DF46FD089502970895D60115
:103FB4000E94E707182D0E94B5224F7B42609A9415
:103FC40009F440640895F3DFC618D6080895EFDFB6
:103FD400C60CD61C0895F7DF46FD08950297089590
:0A3FE400F6DF46FD089502970895E8
:1040000008950895089508950895089508950895C8
:1040100008950895089508950895089508950895B8
:1040200008950895089508950895089508950895A8
:104030000895089508950895089508950895089598
:104040000895089508950895089508950895089588
:104050000895089508950895089508950895089578
:104060000895089508950895089508950895089568
:104070000895089508950895089508950895089558
:02408000B6CFB9
:063FEE00682DB3DE48C897
:02408200B8CFB5
:043FF400692DBACEAB
:02408400B9CFB2
:043FF800B40102CF3F
:02408600BCC0BC
:064200000E94770FB8CD0B
:0A408800CCCEDACEDFCEF8CEBAC0FF
:08420600682DA7DD0C9444189B
:02409200BDC0AF
:04420E00682DADCD9D
:02409400BEC0AC
:04421200B401E3CD43
:02409600BFC0A9
:0C4216000E94770F0E9410110C94A00F62
:0A409800C4CED2CED7CEF2CEC0C007
:08422200682D99DD0C9446188B
:0240A200C3C099
:04422A006B2D9FCD8C
:0240A400C4C096
:04422E00B501E7CD22
:0240A600C5C093
:064232000E94770FB0CDE1
:0A40A800BCCECACED3CEDCCEC3C01E
:08423800682D8EDD0C9448187E
:0240B200C6C086
:044240006A2D94CD82
:0240B400C7C083
:04424400B501CACD29
:0240B600C8C080
:0C4248000E94770F0E9410110C94A20F2E
:0A40B800B4CEC2CED0CED6CEC9C021
:08425400682D80DD0C944A186E
:0240C200CCC070
:04425C006D2D86CD71
:0240C400CDC06D
:04426000B601CECD08
:0240C600CEC06A
:044264000C94AC12F8
:0840C800ACCEBACEBFCECCC0D5
:0A4268000E9450181EDE0C94B60FE1
:0240D000D0C05E
:08427200682D71DD0C944C185D
:0240D200D3C059
:04427A006C2D77CD63
:0240D400D4C056
:04427E00B601ADCD0B
:0240D600D5C053
:044282000C94BE12C8
:0840D800A4CEB2CEB7CED3C0D6
:0A4286000E945018FEDD0C94B60FE4
:0240E000D7C047
:04429000682D62CD66
:0240E200D8C044
:0442940060E06ACDAF
:0240E400D9C041
:04429800B701B2CDEB
:0240E600DAC03E
:06429C000E94770F8CCD9B
:0A40E8009CCEAACEB3CE0895D8C036
:0842A200682D59DD0C944E1843
:0240F200DBC031
:0442AA00652F5FCD50
:0240F400DCC02E
:0442AE00B70195CDF2
:0240F600DDC02B
:0C42B2000E94770F0E9410110C94CF0F97
:1040F80094CEA2CEB0CE0895089508950895089557
:1041080008950895089508950895089508950895BF
:1041180008950895089508950895089508950895AF
:10412800089508950895089508950895089508959F
:104138000895089508950895DECE03CF24CF41CF82
:104148000895089508950895DCCEFFCE20CF3DCF81
:104158000895089508950895DACEFBCE1CCF39CF7F
:104168000895089508950895D6CEFACE19CF36CF7A
:10417800089508950895089508950895089508954F
:10418800089508950895089508950895089508953F
:10419800089508950895089508950895089508952F
:1041A800089508950895089508950895089508951F
:1041B800089508950895089508950895089508950F
:1041C80008950895089508950895089508950895FF
:1041D80008950895089508950895089508950895EF
:1041E80008950895089508950895089508950895DF
:0841F80008950895089508954B
:104400004400000400040400080C0C080C08080C0C
:1044100000040400040000040C08080C080C0C083C
:1044200020242420242020242C28282C282C2C282C
:104430002420202420242420282C2C282C28282C1C
:1044400000040400040000040C08080C080C0C080C
:104450000400000400040400080C0C080C08080CFC
:104460002420202420242420282C2C282C28282CEC
:1044700020242420242020242C28282C282C2C28DC
:1044800080848480848080848C88888C888C8C88CC
:104490008480808480848480888C8C888C88888CBC
:1044A000A4A0A0A4A0A4A4A0A8ACACA8ACA8A8ACAC
:1044B000A0A4A4A0A4A0A0A4ACA8A8ACA8ACACA89C
:1044C0008480808480848480888C8C888C88888C8C
:1044D00080848480848080848C88888C888C8C887C
:1044E000A0A4A4A0A4A0A0A4ACA8A8ACA8ACACA86C
:1044F000A4A0A0A4A0A4A4A0A8ACACA8ACA8A8AC5C
:104500000001EE22F32201018301A3010301D52260
:10451000D4220401E022E7220D09540C4F0C1601AD
:10452000820CC30D4007E005F4054707F3041005AE
:10453000050100098309060303090E095010A609A5
:10454000B30980078E099A096016C209CD091703BD
:10455000D4222002D4224F01FF2201230903072382
:1045600013230C013C2331230000689401C0E8941C
:10457000DF93CF93E0E0F5E405901590171481F0F8
:10458000212F201910F0211510F03496F5CF0EF4DC
:1045900032960590F491E02D0995CF91DF91089521
:1045A0000FEFCF91DF910895089500271091080132
:1045B0001711016010910B01103809F00260089585
:1045C00000271091080117110C9483010895109190
:1045D0000B01103811F00C94A3010895009108010B
:1045E00007110FEF08950E9423020D000E9423027D
:1045F00044656275673A20000E941202089500E047
:10460000089500FB31F901FD0E945302089527111E
:1046100002C000E008952A9519F400910807089552
:10462000009109070895271114C0202FE091080771
:10463000F0910907222311F0203128F00E9477021F
:1046400020517096F9CF222319F0122F0E949A025E
:1046500008952A9519F4009308070895009309070F
:10466000089500930A07043031F4E4E4F7E0E0939E
:104670000B07F0930C07089510910A0700E0103023
:10468000A1F003E0113089F005E0123071F00FEF76
:10469000143059F4E0910B07F0910C0705910023B9
:0C46A00021F0E0930B07F0930C07089545
:04001C000C945623C7
:1046AC001895409B1895419840980000409A409866
:0646BC00419A409A189596
:00000001FF
